{
  "_format": "hh-sol-artifact-1",
  "contractName": "AccountManager",
  "sourceName": "contracts/AccountManager.sol",
  "abi": [
    {
      "anonymous": false,
      "inputs": [
        {
          "indexed": true,
          "internalType": "address",
          "name": "user",
          "type": "address"
        },
        {
          "indexed": false,
          "internalType": "string",
          "name": "name",
          "type": "string"
        }
      ],
      "name": "AccountCreated",
      "type": "event"
    },
    {
      "anonymous": false,
      "inputs": [
        {
          "indexed": true,
          "internalType": "address",
          "name": "from",
          "type": "address"
        },
        {
          "indexed": true,
          "internalType": "address",
          "name": "to",
          "type": "address"
        },
        {
          "indexed": false,
          "internalType": "uint256",
          "name": "amount",
          "type": "uint256"
        }
      ],
      "name": "Transfer",
      "type": "event"
    },
    {
      "inputs": [
        {
          "internalType": "address",
          "name": "",
          "type": "address"
        }
      ],
      "name": "accounts",
      "outputs": [
        {
          "internalType": "string",
          "name": "name",
          "type": "string"
        },
        {
          "internalType": "bool",
          "name": "isRegistered",
          "type": "bool"
        }
      ],
      "stateMutability": "view",
      "type": "function"
    },
    {
      "inputs": [
        {
          "internalType": "address",
          "name": "user",
          "type": "address"
        },
        {
          "internalType": "string",
          "name": "name",
          "type": "string"
        }
      ],
      "name": "createAccount",
      "outputs": [
        {
          "internalType": "bool",
          "name": "",
          "type": "bool"
        }
      ],
      "stateMutability": "nonpayable",
      "type": "function"
    },
    {
      "inputs": [
        {
          "internalType": "address",
          "name": "user",
          "type": "address"
        }
      ],
      "name": "getAccount",
      "outputs": [
        {
          "internalType": "string",
          "name": "",
          "type": "string"
        },
        {
          "internalType": "bool",
          "name": "",
          "type": "bool"
        }
      ],
      "stateMutability": "view",
      "type": "function"
    },
    {
      "inputs": [],
      "name": "getBalance",
      "outputs": [
        {
          "internalType": "uint256",
          "name": "",
          "type": "uint256"
        }
      ],
      "stateMutability": "view",
      "type": "function"
    },
    {
      "inputs": [
        {
          "internalType": "address payable",
          "name": "recipient",
          "type": "address"
        },
        {
          "internalType": "uint256",
          "name": "amount",
          "type": "uint256"
        }
      ],
      "name": "transfer",
      "outputs": [],
      "stateMutability": "nonpayable",
      "type": "function"
    },
    {
      "stateMutability": "payable",
      "type": "receive"
    }
  ],
  "bytecode": "0x6080604052348015600f57600080fd5b5061110d8061001f6000396000f3fe60806040526004361061004e5760003560e01c806312065fe01461005a5780632659f394146100855780635e5c06e2146100c2578063a9059cbb14610100578063fbcbc0f11461012957610055565b3661005557005b600080fd5b34801561006657600080fd5b5061006f610167565b60405161007c91906107cd565b60405180910390f35b34801561009157600080fd5b506100ac60048036038101906100a791906108b5565b61016f565b6040516100b99190610930565b60405180910390f35b3480156100ce57600080fd5b506100e960048036038101906100e4919061094b565b6103e2565b6040516100f7929190610a08565b60405180910390f35b34801561010c57600080fd5b5061012760048036038101906101229190610aa2565b61049b565b005b34801561013557600080fd5b50610150600480360381019061014b919061094b565b6105fd565b60405161015e929190610a08565b60405180910390f35b600047905090565b60008073ffffffffffffffffffffffffffffffffffffffff168473ffffffffffffffffffffffffffffffffffffffff16036101df576040517f08c379a00000000000000000000000000000000000000000000000000000000081526004016101d690610b2e565b60405180910390fd5b60008383905011610225576040517f08c379a000000000000000000000000000000000000000000000000000000000815260040161021c90610b9a565b60405180910390fd5b6000808573ffffffffffffffffffffffffffffffffffffffff1673ffffffffffffffffffffffffffffffffffffffff16815260200190815260200160002060010160009054906101000a900460ff16156102b4576040517f08c379a00000000000000000000000000000000000000000000000000000000081526004016102ab90610c06565b60405180910390fd5b604051806040016040528084848080601f016020809104026020016040519081016040528093929190818152602001838380828437600081840152601f19601f820116905080830192505050505050508152602001600115158152506000808673ffffffffffffffffffffffffffffffffffffffff1673ffffffffffffffffffffffffffffffffffffffff16815260200190815260200160002060008201518160000190816103639190610e61565b5060208201518160010160006101000a81548160ff0219169083151502179055509050508373ffffffffffffffffffffffffffffffffffffffff167fb3202828e8e55b43ee1a77a1ee6ffbe19f0205767feb21e28cadd26390ff050184846040516103cf929190610f6f565b60405180910390a2600190509392505050565b600060205280600052604060002060009150905080600001805461040590610c84565b80601f016020809104026020016040519081016040528092919081815260200182805461043190610c84565b801561047e5780601f106104535761010080835404028352916020019161047e565b820191906000526020600020905b81548152906001019060200180831161046157829003601f168201915b5050505050908060010160009054906101000a900460ff16905082565b804710156104de576040517f08c379a00000000000000000000000000000000000000000000000000000000081526004016104d590610fdf565b60405180910390fd5b600073ffffffffffffffffffffffffffffffffffffffff168273ffffffffffffffffffffffffffffffffffffffff160361054d576040517f08c379a00000000000000000000000000000000000000000000000000000000081526004016105449061104b565b60405180910390fd5b8173ffffffffffffffffffffffffffffffffffffffff166108fc829081150290604051600060405180830381858888f19350505050158015610593573d6000803e3d6000fd5b508173ffffffffffffffffffffffffffffffffffffffff163373ffffffffffffffffffffffffffffffffffffffff167fddf252ad1be2c89b69c2b068fc378daa952ba7f163c4a11628f55a4df523b3ef836040516105f191906107cd565b60405180910390a35050565b606060008060008473ffffffffffffffffffffffffffffffffffffffff1673ffffffffffffffffffffffffffffffffffffffff16815260200190815260200160002060010160009054906101000a900460ff1661068f576040517f08c379a0000000000000000000000000000000000000000000000000000000008152600401610686906110b7565b60405180910390fd5b6000808473ffffffffffffffffffffffffffffffffffffffff1673ffffffffffffffffffffffffffffffffffffffff1681526020019081526020016000206000016000808573ffffffffffffffffffffffffffffffffffffffff1673ffffffffffffffffffffffffffffffffffffffff16815260200190815260200160002060010160009054906101000a900460ff1681805461072b90610c84565b80601f016020809104026020016040519081016040528092919081815260200182805461075790610c84565b80156107a45780601f10610779576101008083540402835291602001916107a4565b820191906000526020600020905b81548152906001019060200180831161078757829003601f168201915b5050505050915091509150915091565b6000819050919050565b6107c7816107b4565b82525050565b60006020820190506107e260008301846107be565b92915050565b600080fd5b600080fd5b600073ffffffffffffffffffffffffffffffffffffffff82169050919050565b600061081d826107f2565b9050919050565b61082d81610812565b811461083857600080fd5b50565b60008135905061084a81610824565b92915050565b600080fd5b600080fd5b600080fd5b60008083601f84011261087557610874610850565b5b8235905067ffffffffffffffff81111561089257610891610855565b5b6020830191508360018202830111156108ae576108ad61085a565b5b9250929050565b6000806000604084860312156108ce576108cd6107e8565b5b60006108dc8682870161083b565b935050602084013567ffffffffffffffff8111156108fd576108fc6107ed565b5b6109098682870161085f565b92509250509250925092565b60008115159050919050565b61092a81610915565b82525050565b60006020820190506109456000830184610921565b92915050565b600060208284031215610961576109606107e8565b5b600061096f8482850161083b565b91505092915050565b600081519050919050565b600082825260208201905092915050565b60005b838110156109b2578082015181840152602081019050610997565b60008484015250505050565b6000601f19601f8301169050919050565b60006109da82610978565b6109e48185610983565b93506109f4818560208601610994565b6109fd816109be565b840191505092915050565b60006040820190508181036000830152610a2281856109cf565b9050610a316020830184610921565b9392505050565b6000610a43826107f2565b9050919050565b610a5381610a38565b8114610a5e57600080fd5b50565b600081359050610a7081610a4a565b92915050565b610a7f816107b4565b8114610a8a57600080fd5b50565b600081359050610a9c81610a76565b92915050565b60008060408385031215610ab957610ab86107e8565b5b6000610ac785828601610a61565b9250506020610ad885828601610a8d565b9150509250929050565b7f496e76616c696420616464726573730000000000000000000000000000000000600082015250565b6000610b18600f83610983565b9150610b2382610ae2565b602082019050919050565b60006020820190508181036000830152610b4781610b0b565b9050919050565b7f4e616d652063616e6e6f7420626520656d707479000000000000000000000000600082015250565b6000610b84601483610983565b9150610b8f82610b4e565b602082019050919050565b60006020820190508181036000830152610bb381610b77565b9050919050565b7f4163636f756e7420616c72656164792072656769737465726564000000000000600082015250565b6000610bf0601a83610983565b9150610bfb82610bba565b602082019050919050565b60006020820190508181036000830152610c1f81610be3565b9050919050565b7f4e487b7100000000000000000000000000000000000000000000000000000000600052604160045260246000fd5b7f4e487b7100000000000000000000000000000000000000000000000000000000600052602260045260246000fd5b60006002820490506001821680610c9c57607f821691505b602082108103610caf57610cae610c55565b5b50919050565b60008190508160005260206000209050919050565b60006020601f8301049050919050565b600082821b905092915050565b600060088302610d177fffffffffffffffffffffffffffffffffffffffffffffffffffffffffffffffff82610cda565b610d218683610cda565b95508019841693508086168417925050509392505050565b6000819050919050565b6000610d5e610d59610d54846107b4565b610d39565b6107b4565b9050919050565b6000819050919050565b610d7883610d43565b610d8c610d8482610d65565b848454610ce7565b825550505050565b600090565b610da1610d94565b610dac818484610d6f565b505050565b5b81811015610dd057610dc5600082610d99565b600181019050610db2565b5050565b601f821115610e1557610de681610cb5565b610def84610cca565b81016020851015610dfe578190505b610e12610e0a85610cca565b830182610db1565b50505b505050565b600082821c905092915050565b6000610e3860001984600802610e1a565b1980831691505092915050565b6000610e518383610e27565b9150826002028217905092915050565b610e6a82610978565b67ffffffffffffffff811115610e8357610e82610c26565b5b610e8d8254610c84565b610e98828285610dd4565b600060209050601f831160018114610ecb5760008415610eb9578287015190505b610ec38582610e45565b865550610f2b565b601f198416610ed986610cb5565b60005b82811015610f0157848901518255600182019150602085019450602081019050610edc565b86831015610f1e5784890151610f1a601f891682610e27565b8355505b6001600288020188555050505b505050505050565b82818337600083830152505050565b6000610f4e8385610983565b9350610f5b838584610f33565b610f64836109be565b840190509392505050565b60006020820190508181036000830152610f8a818486610f42565b90509392505050565b7f496e73756666696369656e7420636f6e74726163742062616c616e6365000000600082015250565b6000610fc9601d83610983565b9150610fd482610f93565b602082019050919050565b60006020820190508181036000830152610ff881610fbc565b9050919050565b7f496e76616c696420726563697069656e74206164647265737300000000000000600082015250565b6000611035601983610983565b915061104082610fff565b602082019050919050565b6000602082019050818103600083015261106481611028565b9050919050565b7f4163636f756e7420646f6573206e6f7420657869737400000000000000000000600082015250565b60006110a1601683610983565b91506110ac8261106b565b602082019050919050565b600060208201905081810360008301526110d081611094565b905091905056fea2646970667358221220943eef1fbe4dc9189abe966abdeab2ec231686b5d4394fbe269a0090d185777d64736f6c634300081c0033",
  "linkReferences": {},
  "deployedLinkReferences": {}
}