{
  "_format": "hh-sol-artifact-1",
  "contractName": "AccountManager",
  "sourceName": "contracts/AccountManager.sol",
  "abi": [
    {
      "anonymous": false,
      "inputs": [
        {
          "indexed": true,
          "internalType": "address",
          "name": "user",
          "type": "address"
        },
        {
          "indexed": false,
          "internalType": "string",
          "name": "name",
          "type": "string"
        }
      ],
      "name": "AccountCreated",
      "type": "event"
    },
    {
      "anonymous": false,
      "inputs": [
        {
          "indexed": true,
          "internalType": "address",
          "name": "from",
          "type": "address"
        },
        {
          "indexed": true,
          "internalType": "address",
          "name": "to",
          "type": "address"
        },
        {
          "indexed": false,
          "internalType": "uint256",
          "name": "amount",
          "type": "uint256"
        }
      ],
      "name": "Transfer",
      "type": "event"
    },
    {
      "inputs": [
        {
          "internalType": "address",
          "name": "",
          "type": "address"
        }
      ],
      "name": "accounts",
      "outputs": [
        {
          "internalType": "string",
          "name": "name",
          "type": "string"
        },
        {
          "internalType": "bool",
          "name": "isRegistered",
          "type": "bool"
        }
      ],
      "stateMutability": "view",
      "type": "function"
    },
    {
      "inputs": [
        {
          "internalType": "address",
          "name": "user",
          "type": "address"
        },
        {
          "internalType": "string",
          "name": "name",
          "type": "string"
        }
      ],
      "name": "createAccount",
      "outputs": [
        {
          "internalType": "bool",
          "name": "",
          "type": "bool"
        }
      ],
      "stateMutability": "nonpayable",
      "type": "function"
    },
    {
      "inputs": [
        {
          "internalType": "address",
          "name": "user",
          "type": "address"
        }
      ],
      "name": "getAccount",
      "outputs": [
        {
          "internalType": "string",
          "name": "",
          "type": "string"
        },
        {
          "internalType": "bool",
          "name": "",
          "type": "bool"
        }
      ],
      "stateMutability": "view",
      "type": "function"
    },
    {
      "inputs": [],
      "name": "getBalance",
      "outputs": [
        {
          "internalType": "uint256",
          "name": "",
          "type": "uint256"
        }
      ],
      "stateMutability": "view",
      "type": "function"
    },
    {
      "inputs": [
        {
          "internalType": "address payable",
          "name": "recipient",
          "type": "address"
        },
        {
          "internalType": "uint256",
          "name": "amount",
          "type": "uint256"
        }
      ],
      "name": "transfer",
      "outputs": [],
      "stateMutability": "nonpayable",
      "type": "function"
    },
    {
      "stateMutability": "payable",
      "type": "receive"
    }
  ],
  "bytecode": "0x6080604052348015600f57600080fd5b506110138061001f6000396000f3fe60806040526004361061004e5760003560e01c806312065fe01461005a5780632659f394146100855780635e5c06e2146100c2578063a9059cbb14610100578063fbcbc0f11461012957610055565b3661005557005b600080fd5b34801561006657600080fd5b5061006f610167565b60405161007c919061073f565b60405180910390f35b34801561009157600080fd5b506100ac60048036038101906100a79190610827565b61016f565b6040516100b991906108a2565b60405180910390f35b3480156100ce57600080fd5b506100e960048036038101906100e491906108bd565b6103e2565b6040516100f792919061097a565b60405180910390f35b34801561010c57600080fd5b5061012760048036038101906101229190610a14565b61049b565b005b34801561013557600080fd5b50610150600480360381019061014b91906108bd565b6105fd565b60405161015e92919061097a565b60405180910390f35b600047905090565b60008073ffffffffffffffffffffffffffffffffffffffff168473ffffffffffffffffffffffffffffffffffffffff16036101df576040517f08c379a00000000000000000000000000000000000000000000000000000000081526004016101d690610aa0565b60405180910390fd5b60008383905011610225576040517f08c379a000000000000000000000000000000000000000000000000000000000815260040161021c90610b0c565b60405180910390fd5b6000808573ffffffffffffffffffffffffffffffffffffffff1673ffffffffffffffffffffffffffffffffffffffff16815260200190815260200160002060010160009054906101000a900460ff16156102b4576040517f08c379a00000000000000000000000000000000000000000000000000000000081526004016102ab90610b78565b60405180910390fd5b604051806040016040528084848080601f016020809104026020016040519081016040528093929190818152602001838380828437600081840152601f19601f820116905080830192505050505050508152602001600115158152506000808673ffffffffffffffffffffffffffffffffffffffff1673ffffffffffffffffffffffffffffffffffffffff16815260200190815260200160002060008201518160000190816103639190610dd3565b5060208201518160010160006101000a81548160ff0219169083151502179055509050508373ffffffffffffffffffffffffffffffffffffffff167fb3202828e8e55b43ee1a77a1ee6ffbe19f0205767feb21e28cadd26390ff050184846040516103cf929190610ee1565b60405180910390a2600190509392505050565b600060205280600052604060002060009150905080600001805461040590610bf6565b80601f016020809104026020016040519081016040528092919081815260200182805461043190610bf6565b801561047e5780601f106104535761010080835404028352916020019161047e565b820191906000526020600020905b81548152906001019060200180831161046157829003601f168201915b5050505050908060010160009054906101000a900460ff16905082565b804710156104de576040517f08c379a00000000000000000000000000000000000000000000000000000000081526004016104d590610f51565b60405180910390fd5b600073ffffffffffffffffffffffffffffffffffffffff168273ffffffffffffffffffffffffffffffffffffffff160361054d576040517f08c379a000000000000000000000000000000000000000000000000000000000815260040161054490610fbd565b60405180910390fd5b8173ffffffffffffffffffffffffffffffffffffffff166108fc829081150290604051600060405180830381858888f19350505050158015610593573d6000803e3d6000fd5b508173ffffffffffffffffffffffffffffffffffffffff163373ffffffffffffffffffffffffffffffffffffffff167fddf252ad1be2c89b69c2b068fc378daa952ba7f163c4a11628f55a4df523b3ef836040516105f1919061073f565b60405180910390a35050565b606060008060008473ffffffffffffffffffffffffffffffffffffffff1673ffffffffffffffffffffffffffffffffffffffff1681526020019081526020016000206000016000808573ffffffffffffffffffffffffffffffffffffffff1673ffffffffffffffffffffffffffffffffffffffff16815260200190815260200160002060010160009054906101000a900460ff1681805461069d90610bf6565b80601f01602080910402602001604051908101604052809291908181526020018280546106c990610bf6565b80156107165780601f106106eb57610100808354040283529160200191610716565b820191906000526020600020905b8154815290600101906020018083116106f957829003601f168201915b5050505050915091509150915091565b6000819050919050565b61073981610726565b82525050565b60006020820190506107546000830184610730565b92915050565b600080fd5b600080fd5b600073ffffffffffffffffffffffffffffffffffffffff82169050919050565b600061078f82610764565b9050919050565b61079f81610784565b81146107aa57600080fd5b50565b6000813590506107bc81610796565b92915050565b600080fd5b600080fd5b600080fd5b60008083601f8401126107e7576107e66107c2565b5b8235905067ffffffffffffffff811115610804576108036107c7565b5b6020830191508360018202830111156108205761081f6107cc565b5b9250929050565b6000806000604084860312156108405761083f61075a565b5b600061084e868287016107ad565b935050602084013567ffffffffffffffff81111561086f5761086e61075f565b5b61087b868287016107d1565b92509250509250925092565b60008115159050919050565b61089c81610887565b82525050565b60006020820190506108b76000830184610893565b92915050565b6000602082840312156108d3576108d261075a565b5b60006108e1848285016107ad565b91505092915050565b600081519050919050565b600082825260208201905092915050565b60005b83811015610924578082015181840152602081019050610909565b60008484015250505050565b6000601f19601f8301169050919050565b600061094c826108ea565b61095681856108f5565b9350610966818560208601610906565b61096f81610930565b840191505092915050565b600060408201905081810360008301526109948185610941565b90506109a36020830184610893565b9392505050565b60006109b582610764565b9050919050565b6109c5816109aa565b81146109d057600080fd5b50565b6000813590506109e2816109bc565b92915050565b6109f181610726565b81146109fc57600080fd5b50565b600081359050610a0e816109e8565b92915050565b60008060408385031215610a2b57610a2a61075a565b5b6000610a39858286016109d3565b9250506020610a4a858286016109ff565b9150509250929050565b7f496e76616c696420616464726573730000000000000000000000000000000000600082015250565b6000610a8a600f836108f5565b9150610a9582610a54565b602082019050919050565b60006020820190508181036000830152610ab981610a7d565b9050919050565b7f4e616d652063616e6e6f7420626520656d707479000000000000000000000000600082015250565b6000610af66014836108f5565b9150610b0182610ac0565b602082019050919050565b60006020820190508181036000830152610b2581610ae9565b9050919050565b7f4163636f756e7420616c72656164792072656769737465726564000000000000600082015250565b6000610b62601a836108f5565b9150610b6d82610b2c565b602082019050919050565b60006020820190508181036000830152610b9181610b55565b9050919050565b7f4e487b7100000000000000000000000000000000000000000000000000000000600052604160045260246000fd5b7f4e487b7100000000000000000000000000000000000000000000000000000000600052602260045260246000fd5b60006002820490506001821680610c0e57607f821691505b602082108103610c2157610c20610bc7565b5b50919050565b60008190508160005260206000209050919050565b60006020601f8301049050919050565b600082821b905092915050565b600060088302610c897fffffffffffffffffffffffffffffffffffffffffffffffffffffffffffffffff82610c4c565b610c938683610c4c565b95508019841693508086168417925050509392505050565b6000819050919050565b6000610cd0610ccb610cc684610726565b610cab565b610726565b9050919050565b6000819050919050565b610cea83610cb5565b610cfe610cf682610cd7565b848454610c59565b825550505050565b600090565b610d13610d06565b610d1e818484610ce1565b505050565b5b81811015610d4257610d37600082610d0b565b600181019050610d24565b5050565b601f821115610d8757610d5881610c27565b610d6184610c3c565b81016020851015610d70578190505b610d84610d7c85610c3c565b830182610d23565b50505b505050565b600082821c905092915050565b6000610daa60001984600802610d8c565b1980831691505092915050565b6000610dc38383610d99565b9150826002028217905092915050565b610ddc826108ea565b67ffffffffffffffff811115610df557610df4610b98565b5b610dff8254610bf6565b610e0a828285610d46565b600060209050601f831160018114610e3d5760008415610e2b578287015190505b610e358582610db7565b865550610e9d565b601f198416610e4b86610c27565b60005b82811015610e7357848901518255600182019150602085019450602081019050610e4e565b86831015610e905784890151610e8c601f891682610d99565b8355505b6001600288020188555050505b505050505050565b82818337600083830152505050565b6000610ec083856108f5565b9350610ecd838584610ea5565b610ed683610930565b840190509392505050565b60006020820190508181036000830152610efc818486610eb4565b90509392505050565b7f496e73756666696369656e7420636f6e74726163742062616c616e6365000000600082015250565b6000610f3b601d836108f5565b9150610f4682610f05565b602082019050919050565b60006020820190508181036000830152610f6a81610f2e565b9050919050565b7f496e76616c696420726563697069656e74206164647265737300000000000000600082015250565b6000610fa76019836108f5565b9150610fb282610f71565b602082019050919050565b60006020820190508181036000830152610fd681610f9a565b905091905056fea26469706673582212206055042b292b818e7cbf0deccf28731372f4d0ddc92b0d999cf3971e029a7e6f64736f6c634300081c0033",
  "linkReferences": {},
  "deployedLinkReferences": {}
}