{
  "_format": "hh-sol-artifact-1",
  "contractName": "AccountManager",
  "sourceName": "contracts/AccountManager.sol",
  "abi": [
    {
      "anonymous": false,
      "inputs": [
        {
          "indexed": true,
          "internalType": "address",
          "name": "user",
          "type": "address"
        },
        {
          "indexed": false,
          "internalType": "string",
          "name": "name",
          "type": "string"
        }
      ],
      "name": "AccountCreated",
      "type": "event"
    },
    {
      "anonymous": false,
      "inputs": [
        {
          "indexed": true,
          "internalType": "address",
          "name": "user",
          "type": "address"
        },
        {
          "indexed": false,
          "internalType": "uint256",
          "name": "amount",
          "type": "uint256"
        }
      ],
      "name": "Deposit",
      "type": "event"
    },
    {
      "anonymous": false,
      "inputs": [
        {
          "indexed": true,
          "internalType": "address",
          "name": "from",
          "type": "address"
        },
        {
          "indexed": true,
          "internalType": "address",
          "name": "to",
          "type": "address"
        },
        {
          "indexed": false,
          "internalType": "uint256",
          "name": "amount",
          "type": "uint256"
        }
      ],
      "name": "Transfer",
      "type": "event"
    },
    {
      "inputs": [
        {
          "internalType": "address",
          "name": "",
          "type": "address"
        }
      ],
      "name": "accounts",
      "outputs": [
        {
          "internalType": "string",
          "name": "name",
          "type": "string"
        },
        {
          "internalType": "bool",
          "name": "isRegistered",
          "type": "bool"
        }
      ],
      "stateMutability": "view",
      "type": "function"
    },
    {
      "inputs": [
        {
          "internalType": "string",
          "name": "name",
          "type": "string"
        }
      ],
      "name": "createAccount",
      "outputs": [],
      "stateMutability": "nonpayable",
      "type": "function"
    },
    {
      "inputs": [],
      "name": "deposit",
      "outputs": [],
      "stateMutability": "payable",
      "type": "function"
    },
    {
      "inputs": [],
      "name": "getBalance",
      "outputs": [
        {
          "internalType": "uint256",
          "name": "",
          "type": "uint256"
        }
      ],
      "stateMutability": "view",
      "type": "function"
    },
    {
      "inputs": [
        {
          "internalType": "address payable",
          "name": "recipient",
          "type": "address"
        },
        {
          "internalType": "uint256",
          "name": "amount",
          "type": "uint256"
        }
      ],
      "name": "transfer",
      "outputs": [],
      "stateMutability": "payable",
      "type": "function"
    }
  ],
  "bytecode": "0x6080604052348015600f57600080fd5b506110c78061001f6000396000f3fe60806040526004361061004a5760003560e01c806312065fe01461004f578063298daf5b1461007a5780635e5c06e2146100a3578063a9059cbb146100e1578063d0e30db0146100fd575b600080fd5b34801561005b57600080fd5b50610064610107565b6040516100719190610723565b60405180910390f35b34801561008657600080fd5b506100a1600480360381019061009c91906107ad565b610126565b005b3480156100af57600080fd5b506100ca60048036038101906100c59190610858565b610322565b6040516100d8929190610930565b60405180910390f35b6100fb60048036038101906100f691906109ca565b6103db565b005b6101056105e9565b005b60003373ffffffffffffffffffffffffffffffffffffffff1631905090565b6000828290501161016c576040517f08c379a000000000000000000000000000000000000000000000000000000000815260040161016390610a56565b60405180910390fd5b6000803373ffffffffffffffffffffffffffffffffffffffff1673ffffffffffffffffffffffffffffffffffffffff16815260200190815260200160002060010160009054906101000a900460ff16156101fb576040517f08c379a00000000000000000000000000000000000000000000000000000000081526004016101f290610ac2565b60405180910390fd5b604051806040016040528083838080601f016020809104026020016040519081016040528093929190818152602001838380828437600081840152601f19601f820116905080830192505050505050508152602001600115158152506000803373ffffffffffffffffffffffffffffffffffffffff1673ffffffffffffffffffffffffffffffffffffffff16815260200190815260200160002060008201518160000190816102aa9190610d1d565b5060208201518160010160006101000a81548160ff0219169083151502179055509050503373ffffffffffffffffffffffffffffffffffffffff167fb3202828e8e55b43ee1a77a1ee6ffbe19f0205767feb21e28cadd26390ff05018383604051610316929190610e2b565b60405180910390a25050565b600060205280600052604060002060009150905080600001805461034590610b40565b80601f016020809104026020016040519081016040528092919081815260200182805461037190610b40565b80156103be5780601f10610393576101008083540402835291602001916103be565b820191906000526020600020905b8154815290600101906020018083116103a157829003601f168201915b5050505050908060010160009054906101000a900460ff16905082565b6000803373ffffffffffffffffffffffffffffffffffffffff1673ffffffffffffffffffffffffffffffffffffffff16815260200190815260200160002060010160009054906101000a900460ff16610469576040517f08c379a000000000000000000000000000000000000000000000000000000000815260040161046090610e9b565b60405180910390fd5b6000808373ffffffffffffffffffffffffffffffffffffffff1673ffffffffffffffffffffffffffffffffffffffff16815260200190815260200160002060010160009054906101000a900460ff166104f7576040517f08c379a00000000000000000000000000000000000000000000000000000000081526004016104ee90610f07565b60405180910390fd5b803414610539576040517f08c379a000000000000000000000000000000000000000000000000000000000815260040161053090610f73565b60405180910390fd5b8173ffffffffffffffffffffffffffffffffffffffff166108fc349081150290604051600060405180830381858888f1935050505015801561057f573d6000803e3d6000fd5b508173ffffffffffffffffffffffffffffffffffffffff163373ffffffffffffffffffffffffffffffffffffffff167fddf252ad1be2c89b69c2b068fc378daa952ba7f163c4a11628f55a4df523b3ef346040516105dd9190610723565b60405180910390a35050565b6000803373ffffffffffffffffffffffffffffffffffffffff1673ffffffffffffffffffffffffffffffffffffffff16815260200190815260200160002060010160009054906101000a900460ff16610677576040517f08c379a000000000000000000000000000000000000000000000000000000000815260040161066e90610fdf565b60405180910390fd5b600034116106ba576040517f08c379a00000000000000000000000000000000000000000000000000000000081526004016106b190611071565b60405180910390fd5b3373ffffffffffffffffffffffffffffffffffffffff167fe1fffcc4923d04b559f4d29a8bfc6cda04eb5b0d3c460751c2402c5c5cc9109c346040516107009190610723565b60405180910390a2565b6000819050919050565b61071d8161070a565b82525050565b60006020820190506107386000830184610714565b92915050565b600080fd5b600080fd5b600080fd5b600080fd5b600080fd5b60008083601f84011261076d5761076c610748565b5b8235905067ffffffffffffffff81111561078a5761078961074d565b5b6020830191508360018202830111156107a6576107a5610752565b5b9250929050565b600080602083850312156107c4576107c361073e565b5b600083013567ffffffffffffffff8111156107e2576107e1610743565b5b6107ee85828601610757565b92509250509250929050565b600073ffffffffffffffffffffffffffffffffffffffff82169050919050565b6000610825826107fa565b9050919050565b6108358161081a565b811461084057600080fd5b50565b6000813590506108528161082c565b92915050565b60006020828403121561086e5761086d61073e565b5b600061087c84828501610843565b91505092915050565b600081519050919050565b600082825260208201905092915050565b60005b838110156108bf5780820151818401526020810190506108a4565b60008484015250505050565b6000601f19601f8301169050919050565b60006108e782610885565b6108f18185610890565b93506109018185602086016108a1565b61090a816108cb565b840191505092915050565b60008115159050919050565b61092a81610915565b82525050565b6000604082019050818103600083015261094a81856108dc565b90506109596020830184610921565b9392505050565b600061096b826107fa565b9050919050565b61097b81610960565b811461098657600080fd5b50565b60008135905061099881610972565b92915050565b6109a78161070a565b81146109b257600080fd5b50565b6000813590506109c48161099e565b92915050565b600080604083850312156109e1576109e061073e565b5b60006109ef85828601610989565b9250506020610a00858286016109b5565b9150509250929050565b7f4e616d652063616e6e6f7420626520656d707479000000000000000000000000600082015250565b6000610a40601483610890565b9150610a4b82610a0a565b602082019050919050565b60006020820190508181036000830152610a6f81610a33565b9050919050565b7f4163636f756e7420616c72656164792072656769737465726564000000000000600082015250565b6000610aac601a83610890565b9150610ab782610a76565b602082019050919050565b60006020820190508181036000830152610adb81610a9f565b9050919050565b7f4e487b7100000000000000000000000000000000000000000000000000000000600052604160045260246000fd5b7f4e487b7100000000000000000000000000000000000000000000000000000000600052602260045260246000fd5b60006002820490506001821680610b5857607f821691505b602082108103610b6b57610b6a610b11565b5b50919050565b60008190508160005260206000209050919050565b60006020601f8301049050919050565b600082821b905092915050565b600060088302610bd37fffffffffffffffffffffffffffffffffffffffffffffffffffffffffffffffff82610b96565b610bdd8683610b96565b95508019841693508086168417925050509392505050565b6000819050919050565b6000610c1a610c15610c108461070a565b610bf5565b61070a565b9050919050565b6000819050919050565b610c3483610bff565b610c48610c4082610c21565b848454610ba3565b825550505050565b600090565b610c5d610c50565b610c68818484610c2b565b505050565b5b81811015610c8c57610c81600082610c55565b600181019050610c6e565b5050565b601f821115610cd157610ca281610b71565b610cab84610b86565b81016020851015610cba578190505b610cce610cc685610b86565b830182610c6d565b50505b505050565b600082821c905092915050565b6000610cf460001984600802610cd6565b1980831691505092915050565b6000610d0d8383610ce3565b9150826002028217905092915050565b610d2682610885565b67ffffffffffffffff811115610d3f57610d3e610ae2565b5b610d498254610b40565b610d54828285610c90565b600060209050601f831160018114610d875760008415610d75578287015190505b610d7f8582610d01565b865550610de7565b601f198416610d9586610b71565b60005b82811015610dbd57848901518255600182019150602085019450602081019050610d98565b86831015610dda5784890151610dd6601f891682610ce3565b8355505b6001600288020188555050505b505050505050565b82818337600083830152505050565b6000610e0a8385610890565b9350610e17838584610def565b610e20836108cb565b840190509392505050565b60006020820190508181036000830152610e46818486610dfe565b90509392505050565b7f53656e646572206163636f756e7420646f6573206e6f74206578697374000000600082015250565b6000610e85601d83610890565b9150610e9082610e4f565b602082019050919050565b60006020820190508181036000830152610eb481610e78565b9050919050565b7f526563697069656e74206163636f756e7420646f6573206e6f74206578697374600082015250565b6000610ef1602083610890565b9150610efc82610ebb565b602082019050919050565b60006020820190508181036000830152610f2081610ee4565b9050919050565b7f53656e742076616c7565206d757374206d6174636820616d6f756e7400000000600082015250565b6000610f5d601c83610890565b9150610f6882610f27565b602082019050919050565b60006020820190508181036000830152610f8c81610f50565b9050919050565b7f4163636f756e7420646f6573206e6f7420657869737400000000000000000000600082015250565b6000610fc9601683610890565b9150610fd482610f93565b602082019050919050565b60006020820190508181036000830152610ff881610fbc565b9050919050565b7f4465706f73697420616d6f756e74206d7573742062652067726561746572207460008201527f68616e207a65726f000000000000000000000000000000000000000000000000602082015250565b600061105b602883610890565b915061106682610fff565b604082019050919050565b6000602082019050818103600083015261108a8161104e565b905091905056fea2646970667358221220e37c1f6875b2afe8d97245149b46ab49bd5c7252557706de8611e7bb3298535d64736f6c634300081c0033",
  "linkReferences": {},
  "deployedLinkReferences": {}
}