{
  "_format": "hh-sol-artifact-1",
  "contractName": "AccountManager",
  "sourceName": "contracts/AccountManager.sol",
  "abi": [
    {
      "anonymous": false,
      "inputs": [
        {
          "indexed": true,
          "internalType": "address",
          "name": "user",
          "type": "address"
        },
        {
          "indexed": false,
          "internalType": "string",
          "name": "name",
          "type": "string"
        }
      ],
      "name": "AccountCreated",
      "type": "event"
    },
    {
      "inputs": [
        {
          "internalType": "address",
          "name": "",
          "type": "address"
        }
      ],
      "name": "accounts",
      "outputs": [
        {
          "internalType": "string",
          "name": "name",
          "type": "string"
        },
        {
          "internalType": "bool",
          "name": "isRegistered",
          "type": "bool"
        }
      ],
      "stateMutability": "view",
      "type": "function"
    },
    {
      "inputs": [
        {
          "internalType": "address",
          "name": "user",
          "type": "address"
        },
        {
          "internalType": "string",
          "name": "name",
          "type": "string"
        }
      ],
      "name": "createAccount",
      "outputs": [
        {
          "internalType": "bool",
          "name": "",
          "type": "bool"
        }
      ],
      "stateMutability": "nonpayable",
      "type": "function"
    }
  ],
  "bytecode": "0x6080604052348015600f57600080fd5b50610b098061001f6000396000f3fe608060405234801561001057600080fd5b50600436106100365760003560e01c80632659f3941461003b5780635e5c06e21461006b575b600080fd5b61005560048036038101906100509190610495565b61009c565b6040516100629190610510565b60405180910390f35b6100856004803603810190610080919061052b565b61030f565b6040516100939291906105e8565b60405180910390f35b60008073ffffffffffffffffffffffffffffffffffffffff168473ffffffffffffffffffffffffffffffffffffffff160361010c576040517f08c379a000000000000000000000000000000000000000000000000000000000815260040161010390610664565b60405180910390fd5b60008383905011610152576040517f08c379a0000000000000000000000000000000000000000000000000000000008152600401610149906106d0565b60405180910390fd5b6000808573ffffffffffffffffffffffffffffffffffffffff1673ffffffffffffffffffffffffffffffffffffffff16815260200190815260200160002060010160009054906101000a900460ff16156101e1576040517f08c379a00000000000000000000000000000000000000000000000000000000081526004016101d89061073c565b60405180910390fd5b604051806040016040528084848080601f016020809104026020016040519081016040528093929190818152602001838380828437600081840152601f19601f820116905080830192505050505050508152602001600115158152506000808673ffffffffffffffffffffffffffffffffffffffff1673ffffffffffffffffffffffffffffffffffffffff168152602001908152602001600020600082015181600001908161029091906109a1565b5060208201518160010160006101000a81548160ff0219169083151502179055509050508373ffffffffffffffffffffffffffffffffffffffff167fb3202828e8e55b43ee1a77a1ee6ffbe19f0205767feb21e28cadd26390ff050184846040516102fc929190610aaf565b60405180910390a2600190509392505050565b6000602052806000526040600020600091509050806000018054610332906107ba565b80601f016020809104026020016040519081016040528092919081815260200182805461035e906107ba565b80156103ab5780601f10610380576101008083540402835291602001916103ab565b820191906000526020600020905b81548152906001019060200180831161038e57829003601f168201915b5050505050908060010160009054906101000a900460ff16905082565b600080fd5b600080fd5b600073ffffffffffffffffffffffffffffffffffffffff82169050919050565b60006103fd826103d2565b9050919050565b61040d816103f2565b811461041857600080fd5b50565b60008135905061042a81610404565b92915050565b600080fd5b600080fd5b600080fd5b60008083601f84011261045557610454610430565b5b8235905067ffffffffffffffff81111561047257610471610435565b5b60208301915083600182028301111561048e5761048d61043a565b5b9250929050565b6000806000604084860312156104ae576104ad6103c8565b5b60006104bc8682870161041b565b935050602084013567ffffffffffffffff8111156104dd576104dc6103cd565b5b6104e98682870161043f565b92509250509250925092565b60008115159050919050565b61050a816104f5565b82525050565b60006020820190506105256000830184610501565b92915050565b600060208284031215610541576105406103c8565b5b600061054f8482850161041b565b91505092915050565b600081519050919050565b600082825260208201905092915050565b60005b83811015610592578082015181840152602081019050610577565b60008484015250505050565b6000601f19601f8301169050919050565b60006105ba82610558565b6105c48185610563565b93506105d4818560208601610574565b6105dd8161059e565b840191505092915050565b6000604082019050818103600083015261060281856105af565b90506106116020830184610501565b9392505050565b7f496e76616c696420616464726573730000000000000000000000000000000000600082015250565b600061064e600f83610563565b915061065982610618565b602082019050919050565b6000602082019050818103600083015261067d81610641565b9050919050565b7f4e616d652063616e6e6f7420626520656d707479000000000000000000000000600082015250565b60006106ba601483610563565b91506106c582610684565b602082019050919050565b600060208201905081810360008301526106e9816106ad565b9050919050565b7f4163636f756e7420616c72656164792072656769737465726564000000000000600082015250565b6000610726601a83610563565b9150610731826106f0565b602082019050919050565b6000602082019050818103600083015261075581610719565b9050919050565b7f4e487b7100000000000000000000000000000000000000000000000000000000600052604160045260246000fd5b7f4e487b7100000000000000000000000000000000000000000000000000000000600052602260045260246000fd5b600060028204905060018216806107d257607f821691505b6020821081036107e5576107e461078b565b5b50919050565b60008190508160005260206000209050919050565b60006020601f8301049050919050565b600082821b905092915050565b60006008830261084d7fffffffffffffffffffffffffffffffffffffffffffffffffffffffffffffffff82610810565b6108578683610810565b95508019841693508086168417925050509392505050565b6000819050919050565b6000819050919050565b600061089e6108996108948461086f565b610879565b61086f565b9050919050565b6000819050919050565b6108b883610883565b6108cc6108c4826108a5565b84845461081d565b825550505050565b600090565b6108e16108d4565b6108ec8184846108af565b505050565b5b81811015610910576109056000826108d9565b6001810190506108f2565b5050565b601f82111561095557610926816107eb565b61092f84610800565b8101602085101561093e578190505b61095261094a85610800565b8301826108f1565b50505b505050565b600082821c905092915050565b60006109786000198460080261095a565b1980831691505092915050565b60006109918383610967565b9150826002028217905092915050565b6109aa82610558565b67ffffffffffffffff8111156109c3576109c261075c565b5b6109cd82546107ba565b6109d8828285610914565b600060209050601f831160018114610a0b57600084156109f9578287015190505b610a038582610985565b865550610a6b565b601f198416610a19866107eb565b60005b82811015610a4157848901518255600182019150602085019450602081019050610a1c565b86831015610a5e5784890151610a5a601f891682610967565b8355505b6001600288020188555050505b505050505050565b82818337600083830152505050565b6000610a8e8385610563565b9350610a9b838584610a73565b610aa48361059e565b840190509392505050565b60006020820190508181036000830152610aca818486610a82565b9050939250505056fea264697066735822122064baf9370e96a981e60ceef769b5189141cdb7bda875f94e4bdcb44e910d40c664736f6c634300081c0033",
  "linkReferences": {},
  "deployedLinkReferences": {}
}